{
  "contractName": "CollectReward",
  "abi": [
    {
      "inputs": [],
      "name": "storedData",
      "outputs": [
        {
          "internalType": "uint256",
          "name": "",
          "type": "uint256"
        }
      ],
      "stateMutability": "view",
      "type": "function",
      "constant": true
    },
    {
      "inputs": [],
      "name": "set",
      "outputs": [],
      "stateMutability": "nonpayable",
      "type": "function"
    }
  ],
  "bytecode": "0x6080604052348015600f57600080fd5b5060a58061001e6000396000f3fe6080604052348015600f57600080fd5b506004361060325760003560e01c80632a1afcd9146037578063b8e010de146053575b600080fd5b603d605b565b6040518082815260200191505060405180910390f35b60596061565b005b60005481565b60fa6000540160008190555056fea2646970667358221220a0d825e46e56d56260daa4a9cdf844b36d3e3979f910392257192c2521e1bb7564736f6c63430006000033",
  "source": "pragma solidity ^0.6.0;\r\n\r\ncontract CollectReward {\r\n    uint public storedData;\r\n\r\n    function set() public {\r\n        storedData = storedData + 250;\r\n    }\r\n}\r\n",
  "sourcePath": "C:/Users/ambi/code/projekt/predavanja/contracts/CollectReward.sol",
  "compiler": {
    "name": "solc",
    "version": "0.6.0+commit.26b70077.Emscripten.clang"
  },
  "schemaVersion": "3.2.5",
  "updatedAt": "2020-09-21T21:08:45.097Z",
  "networkType": "ethereum",
  "devdoc": {
    "methods": {}
  },
  "userdoc": {
    "methods": {}
  }
}