{
  "contractName": "Lecture",
  "abi": [
    {
      "inputs": [
        {
          "internalType": "string",
          "name": "_title",
          "type": "string"
        },
        {
          "internalType": "uint256",
          "name": "_pledgePerEpisode",
          "type": "uint256"
        }
      ],
      "stateMutability": "nonpayable",
      "type": "constructor"
    },
    {
      "inputs": [],
      "name": "pledgePerLecture",
      "outputs": [
        {
          "internalType": "uint256",
          "name": "",
          "type": "uint256"
        }
      ],
      "stateMutability": "view",
      "type": "function",
      "constant": true
    },
    {
      "inputs": [
        {
          "internalType": "address",
          "name": "",
          "type": "address"
        }
      ],
      "name": "pledges",
      "outputs": [
        {
          "internalType": "uint256",
          "name": "",
          "type": "uint256"
        }
      ],
      "stateMutability": "view",
      "type": "function",
      "constant": true
    },
    {
      "inputs": [],
      "name": "title",
      "outputs": [
        {
          "internalType": "string",
          "name": "",
          "type": "string"
        }
      ],
      "stateMutability": "view",
      "type": "function",
      "constant": true
    },
    {
      "inputs": [],
      "name": "pledge",
      "outputs": [],
      "stateMutability": "payable",
      "type": "function",
      "payable": true
    },
    {
      "inputs": [
        {
          "internalType": "address payable",
          "name": "recipient",
          "type": "address"
        }
      ],
      "name": "payLecturer",
      "outputs": [],
      "stateMutability": "nonpayable",
      "type": "function"
    },
    {
      "inputs": [],
      "name": "totalPledgers",
      "outputs": [
        {
          "internalType": "uint256",
          "name": "",
          "type": "uint256"
        }
      ],
      "stateMutability": "view",
      "type": "function",
      "constant": true
    },
    {
      "inputs": [],
      "name": "totalPledgesPrice",
      "outputs": [
        {
          "internalType": "uint256",
          "name": "",
          "type": "uint256"
        }
      ],
      "stateMutability": "view",
      "type": "function",
      "constant": true
    }
  ],
  "bytecode": "0x608060405234801561001057600080fd5b506040516109ab3803806109ab8339818101604052604081101561003357600080fd5b810190808051604051939291908464010000000082111561005357600080fd5b8382019150602082018581111561006957600080fd5b825186600182028301116401000000008211171561008657600080fd5b8083526020830192505050908051906020019080838360005b838110156100ba57808201518184015260208101905061009f565b50505050905090810190601f1680156100e75780820380516001836020036101000a031916815260200191505b50604052602001805190602001909291905050508160009080519060200190610111929190610120565b508060018190555050506101c5565b828054600181600116156101000203166002900490600052602060002090601f016020900481019282601f1061016157805160ff191683800117855561018f565b8280016001018555821561018f579182015b8281111561018e578251825591602001919060010190610173565b5b50905061019c91906101a0565b5090565b6101c291905b808211156101be5760008160009055506001016101a6565b5090565b90565b6107d7806101d46000396000f3fe6080604052600436106100705760003560e01c8063868acfa11161004e578063868acfa11461019557806388ffe867146101c0578063a1841637146101ca578063ee8d7116146101f557610070565b8063343576f51461007557806340b073f9146100da5780634a79d50c14610105575b600080fd5b34801561008157600080fd5b506100c46004803603602081101561009857600080fd5b81019080803573ffffffffffffffffffffffffffffffffffffffff169060200190929190505050610246565b6040518082815260200191505060405180910390f35b3480156100e657600080fd5b506100ef61025e565b6040518082815260200191505060405180910390f35b34801561011157600080fd5b5061011a6102a5565b6040518080602001828103825283818151815260200191508051906020019080838360005b8381101561015a57808201518184015260208101905061013f565b50505050905090810190601f1680156101875780820380516001836020036101000a031916815260200191505b509250505060405180910390f35b3480156101a157600080fd5b506101aa610343565b6040518082815260200191505060405180910390f35b6101c8610349565b005b3480156101d657600080fd5b506101df610570565b6040518082815260200191505060405180910390f35b34801561020157600080fd5b506102446004803603602081101561021857600080fd5b81019080803573ffffffffffffffffffffffffffffffffffffffff16906020019092919050505061057d565b005b60026020528060005260406000206000915090505481565b6000600260003373ffffffffffffffffffffffffffffffffffffffff1673ffffffffffffffffffffffffffffffffffffffff16815260200190815260200160002054905090565b60008054600181600116156101000203166002900480601f01602080910402602001604051908101604052809291908181526020018280546001816001161561010002031660029004801561033b5780601f106103105761010080835404028352916020019161033b565b820191906000526020600020905b81548152906001019060200180831161031e57829003601f168201915b505050505081565b60015481565b60015434600260003373ffffffffffffffffffffffffffffffffffffffff1673ffffffffffffffffffffffffffffffffffffffff168152602001908152602001600020540110156103e5576040517f08c379a000000000000000000000000000000000000000000000000000000000815260040180806020018281038252603781526020018061076b6037913960400191505060405180910390fd5b600080905060008090505b60038054905081101561047e573373ffffffffffffffffffffffffffffffffffffffff166003828154811061042157fe5b9060005260206000200160009054906101000a900473ffffffffffffffffffffffffffffffffffffffff1673ffffffffffffffffffffffffffffffffffffffff161415610471576001915061047e565b80806001019150506103f0565b50806104e8576003339080600181540180825580915050600190039060005260206000200160009091909190916101000a81548173ffffffffffffffffffffffffffffffffffffffff021916908373ffffffffffffffffffffffffffffffffffffffff1602179055505b34600260003373ffffffffffffffffffffffffffffffffffffffff1673ffffffffffffffffffffffffffffffffffffffff1681526020019081526020016000205401600260003373ffffffffffffffffffffffffffffffffffffffff1673ffffffffffffffffffffffffffffffffffffffff1681526020019081526020016000208190555050565b6000600380549050905090565b600080905060008090505b60038054905081101561071e5760015460026000600384815481106105a957fe5b9060005260206000200160009054906101000a900473ffffffffffffffffffffffffffffffffffffffff1673ffffffffffffffffffffffffffffffffffffffff1673ffffffffffffffffffffffffffffffffffffffff168152602001908152602001600020541061071157600154600260006003848154811061062857fe5b9060005260206000200160009054906101000a900473ffffffffffffffffffffffffffffffffffffffff1673ffffffffffffffffffffffffffffffffffffffff1673ffffffffffffffffffffffffffffffffffffffff168152602001908152602001600020540360026000600384815481106106a057fe5b9060005260206000200160009054906101000a900473ffffffffffffffffffffffffffffffffffffffff1673ffffffffffffffffffffffffffffffffffffffff1673ffffffffffffffffffffffffffffffffffffffff16815260200190815260200160002081905550600154820191505b8080600101915050610588565b508173ffffffffffffffffffffffffffffffffffffffff166108fc829081150290604051600060405180830381858888f19350505050158015610765573d6000803e3d6000fd5b50505056fe506c65646765206d7573742062652067726561746572207468616e206d696e696d756d20706c6564676520706572206c6563747572652ea2646970667358221220aa8a586545b6c96d814b857fae750e5e7701d9667431ffc0c945ddd20816e1fc64736f6c63430006000033",
  "source": "pragma solidity ^0.6.0;\n\ncontract Lecture {\n    string public title;\n    uint public pledgePerLecture;\n    \n    //address payable recipient;\n    \n    //mapping adresses to balances\n    mapping(address=>uint) public pledges;\n    //list of pledgers \n    address[] pledgers;\n\n    mapping (address => uint) balance;\n\n    \n    constructor(string memory _title, uint _pledgePerEpisode) public {\n        title = _title;\n        pledgePerLecture = _pledgePerEpisode;\n    }\n    \n    \n    //msg.value = ether value associated with the transaction used to call this fucntion\n    //msg.sender = address of the person interacting with the contract/function\n    function pledge () public payable {\n        require(pledges[msg.sender] + msg.value >= pledgePerLecture, \"Pledge must be greater than minimum pledge per lecture.\");\n        \n        //making sure the fucntion caller isn't already in the pledgers array\n        bool oldPledger = false;\n        for(uint i = 0; i<pledgers.length; i++){\n            if(pledgers[i] == msg.sender){\n                oldPledger = true;\n                break;\n            }\n        }\n        if(!oldPledger){\n            //adding the new pledger to the pledgers array\n            pledgers.push(msg.sender);\n        }\n        //increase the pledge for this pledger\n        //sum of the existing pledge + value associated with the transaction\n        pledges[msg.sender]= pledges[msg.sender] + msg.value;\n        //emit DataChanged(msg.value, now);\n    }\n    \n    function payLecturer (address payable recipient) public {\n        \n        //subtract pledgePerLecture from every pledge and add it to lecturePay\n        uint lecturePay=0;\n        //go over all the pledges\n        for(uint i=0; i < pledgers.length; i++){\n            //check if pledgePerLecture is less than the pledge\n            if(pledges[pledgers[i]] >= pledgePerLecture){\n            pledges[pledgers[i]] = pledges[pledgers[i]] - pledgePerLecture;\n            lecturePay = lecturePay + pledgePerLecture;\n            }\n        }\n        //pay\n        recipient.transfer(lecturePay);\n    }\n    \n    \n    //testiranje\n    function totalPledgers() public view returns (uint) {\n        return pledgers.length;\n    }\n    function totalPledgesPrice() public view returns (uint) {\n        return pledges[msg.sender];\n    }\n       \n  \n}",
  "sourcePath": "C:/Users/ambi/code/projekt/predavanja/contracts/Lecture.sol",
  "compiler": {
    "name": "solc",
    "version": "0.6.0+commit.26b70077.Emscripten.clang"
  },
  "schemaVersion": "3.2.5",
  "updatedAt": "2020-09-21T21:08:43.970Z",
  "networkType": "ethereum",
  "devdoc": {
    "methods": {}
  },
  "userdoc": {
    "methods": {}
  }
}